:060000000A128A110E280D
:10000800FE00030EF1000408F2000A08F3000A12C9
:100018008A118A280A128A11112883133030FD00A8
:100028000130FE005A30FF00203084000A128A1185
:100038004B210A128A11F701F801F901FA01FB01B3
:10004800FC0183010A128A111329F6007328C330B0
:10005800831203139F053028312832288312031393
:100068001F139F131F14831603139F139F121F122E
:100078008928C330831203139F0542284328442844
:10008800831203131F179F131F14831603139F1341
:100098009F121F128928C330831203139F05542807
:1000A80055285628831203131F139F171F148316EE
:1000B80003139F139F121F128928C330831203133F
:1000C8009F05662867286828831203131F179F1740
:1000D8001F14831603139F139F121F128928760873
:1000E800F400F5017508003A03197B28892874087B
:1000F800003A03192B28013A03193D28033A03193A
:100108004F28013A0319612889280800831203132C
:100118000C1F8F2890289E281F0CF000700C0F3998
:10012800003A031D982899289D281E08F000700899
:10013800FC000C130B1DA128A228C2288512051348
:1001480077037804031DA928AA28B42885167A08F5
:10015800203E8400831300088800F701F801BF28B7
:1001680005177908203E84008313000888000130B1
:10017800F7000030F8000B11FF3081000B1CC52878
:10018800C628D5280618C928CA28CD280708013E38
:1001980087008618D028D128D4280708FF3E870072
:1001A8000B1073088A0072088400710E8300FE0E1B
:1001B8007E0E090001308316031788008901831613
:1001C80003130514051285120513061486148701F6
:1001D800880183120313850186018701880183162C
:1001E80003130F138F160F120F14811281110115AB
:1001F80081140114811303309500161496148B177B
:100208000B148B150B170B110C17831203130C13FC
:1002180002300A128A1129200A128A1108000A12C9
:100228008A11DE200A128A117C080A128A113321E7
:100238000A128A11831203139F18232924292A29B1
:10024800252926292729831203139F140A128A11A4
:100258006A210A128A1118290A128A110E28F60030
:1002680076080F39F4007408F9007608F4000430B1
:100278000310F40CFF3E031D3C2974080F39F500E8
:100288007508FA0008007E088A007F0882000A12B2
:100298008A1147210A128A118000840A04087D06FF
:1002A80003190034FF0A0319FE0A4B293F340634A8
:1002B8005B344F3466346D347D3407347F346F34A7
:1002C80077347C3439345E347934713483120313CF
:1002D80007087C02031871297229742905167529E3
:0402E80005120800F3
:04400E00D420FF3F7C
:00000001FF
